{
  "_format": "hh-sol-artifact-1",
  "contractName": "VotingSystem",
  "sourceName": "contracts/VotingSystem.sol",
  "abi": [
    {
      "inputs": [],
      "stateMutability": "nonpayable",
      "type": "constructor"
    },
    {
      "anonymous": false,
      "inputs": [
        {
          "indexed": false,
          "internalType": "uint256",
          "name": "candidateId",
          "type": "uint256"
        },
        {
          "indexed": false,
          "internalType": "string",
          "name": "name",
          "type": "string"
        }
      ],
      "name": "CandidateAdded",
      "type": "event"
    },
    {
      "anonymous": false,
      "inputs": [
        {
          "indexed": false,
          "internalType": "address",
          "name": "voter",
          "type": "address"
        },
        {
          "indexed": false,
          "internalType": "uint256",
          "name": "candidateId",
          "type": "uint256"
        },
        {
          "indexed": false,
          "internalType": "string",
          "name": "candidateName",
          "type": "string"
        }
      ],
      "name": "Voted",
      "type": "event"
    },
    {
      "anonymous": false,
      "inputs": [
        {
          "indexed": false,
          "internalType": "string",
          "name": "winnerName",
          "type": "string"
        },
        {
          "indexed": false,
          "internalType": "uint256",
          "name": "winningVotes",
          "type": "uint256"
        }
      ],
      "name": "VotingEnded",
      "type": "event"
    },
    {
      "inputs": [],
      "name": "MAX_CANDIDATES",
      "outputs": [
        {
          "internalType": "uint256",
          "name": "",
          "type": "uint256"
        }
      ],
      "stateMutability": "view",
      "type": "function"
    },
    {
      "inputs": [],
      "name": "MAX_VOTERS",
      "outputs": [
        {
          "internalType": "uint256",
          "name": "",
          "type": "uint256"
        }
      ],
      "stateMutability": "view",
      "type": "function"
    },
    {
      "inputs": [
        {
          "internalType": "string",
          "name": "_name",
          "type": "string"
        }
      ],
      "name": "addCandidate",
      "outputs": [],
      "stateMutability": "nonpayable",
      "type": "function"
    },
    {
      "inputs": [],
      "name": "candidateCount",
      "outputs": [
        {
          "internalType": "uint256",
          "name": "",
          "type": "uint256"
        }
      ],
      "stateMutability": "view",
      "type": "function"
    },
    {
      "inputs": [
        {
          "internalType": "uint256",
          "name": "",
          "type": "uint256"
        }
      ],
      "name": "candidates",
      "outputs": [
        {
          "internalType": "string",
          "name": "name",
          "type": "string"
        },
        {
          "internalType": "uint256",
          "name": "voteCount",
          "type": "uint256"
        }
      ],
      "stateMutability": "view",
      "type": "function"
    },
    {
      "inputs": [
        {
          "internalType": "uint256",
          "name": "_candidateId",
          "type": "uint256"
        }
      ],
      "name": "getCandidateDetails",
      "outputs": [
        {
          "internalType": "string",
          "name": "",
          "type": "string"
        },
        {
          "internalType": "uint256",
          "name": "",
          "type": "uint256"
        }
      ],
      "stateMutability": "view",
      "type": "function"
    },
    {
      "inputs": [],
      "name": "getWinner",
      "outputs": [
        {
          "internalType": "string",
          "name": "",
          "type": "string"
        },
        {
          "internalType": "uint256",
          "name": "",
          "type": "uint256"
        }
      ],
      "stateMutability": "view",
      "type": "function"
    },
    {
      "inputs": [
        {
          "internalType": "address",
          "name": "",
          "type": "address"
        }
      ],
      "name": "hasVoted",
      "outputs": [
        {
          "internalType": "bool",
          "name": "",
          "type": "bool"
        }
      ],
      "stateMutability": "view",
      "type": "function"
    },
    {
      "inputs": [],
      "name": "owner",
      "outputs": [
        {
          "internalType": "address",
          "name": "",
          "type": "address"
        }
      ],
      "stateMutability": "view",
      "type": "function"
    },
    {
      "inputs": [],
      "name": "totalVotes",
      "outputs": [
        {
          "internalType": "uint256",
          "name": "",
          "type": "uint256"
        }
      ],
      "stateMutability": "view",
      "type": "function"
    },
    {
      "inputs": [
        {
          "internalType": "uint256",
          "name": "_candidateId",
          "type": "uint256"
        }
      ],
      "name": "vote",
      "outputs": [],
      "stateMutability": "nonpayable",
      "type": "function"
    }
  ],
  "bytecode": "0x608060405234801561001057600080fd5b50600080546001600160a01b0319163390811790915560408051808201909152601d81527f566f74696e672053797374656d206465706c6f7965642062793a202573000000602082015261006391610068565b61014c565b6100b1828260405160240161007e9291906100ec565b60408051601f198184030181529190526020810180516001600160e01b0390811663319af33360e01b179091526100b516565b5050565b6100c8816100cb60201b610b391760201c565b50565b60006a636f6e736f6c652e6c6f679050600080835160208501845afa505050565b604081526000835180604084015260005b8181101561011a57602081870181015160608684010152016100fd565b50600060608285018101919091526001600160a01b03949094166020840152601f01601f191690910190910192915050565b611271806200015c6000396000f3fe608060405234801561001057600080fd5b50600436106100a95760003560e01c80633ceed692116100715780633ceed69214610146578063462e91ec1461014e5780638da5cb5b146101615780638e7ea5b21461018c578063a9a981a314610194578063f07860961461019d57600080fd5b80630121b93f146100ae57806309eef43e146100c35780630d15fd77146100fb57806327f9fd50146101125780633477ee2e14610133575b600080fd5b6100c16100bc366004610d1a565b6101a5565b005b6100e66100d1366004610d33565b60016020526000908152604090205460ff1681565b60405190151581526020015b60405180910390f35b61010460045481565b6040519081526020016100f2565b610125610120366004610d1a565b61057f565b6040516100f2929190610da9565b610125610141366004610d1a565b610671565b610104601481565b6100c161015c366004610de1565b610715565b600054610174906001600160a01b031681565b6040516001600160a01b0390911681526020016100f2565b6101256108ce565b61010460035481565b610104600481565b6101e46040518060400160405280601c81526020017f436865636b696e6720766f74696e672072756c657320666f722025730000000081525033610b5a565b604080518082018252601e81527f48617320766f7465643a2025732c20546f74616c20766f7465733a20257300006020808301919091523360009081526001909152919091205460045461023c929160ff1690610ba3565b3360009081526001602052604090205460ff16156102a15760405162461bcd60e51b815260206004820152601760248201527f566f7465722068617320616c726561647920766f74656400000000000000000060448201526064015b60405180910390fd5b6014600454106102f35760405162461bcd60e51b815260206004820152601b60248201527f4d6178696d756d20766f746572206c696d6974207265616368656400000000006044820152606401610298565b60035481106103385760405162461bcd60e51b8152602060048201526011602482015270496e76616c69642063616e64696461746560781b6044820152606401610298565b6104166040518060400160405280601b81526020017f566f74696e6720666f722063616e6469646174652025733a20257300000000008152508260026000858152602001908152602001600020600001805461039390610e92565b80601f01602080910402602001604051908101604052809291908181526020018280546103bf90610e92565b801561040c5780601f106103e15761010080835404028352916020019161040c565b820191906000526020600020905b8154815290600101906020018083116103ef57829003601f168201915b5050505050610bef565b600081815260026020526040812060010180549161043383610ecc565b90915550503360009081526001602081905260408220805460ff19169091179055600480549161046283610ecc565b90915550506000818152600260205260409081902090517f497ac9c2d8b6e7ea7204365157d9642f36d2b6125352bfa6d0a73328142d0bd9916104a89133918591610ef3565b60405180910390a161057c60405180606001604052806025815260200161121760259139600083815260026020526040902080546104e590610e92565b80601f016020809104026020016040519081016040528092919081815260200182805461051190610e92565b801561055e5780601f106105335761010080835404028352916020019161055e565b820191906000526020600020905b81548152906001019060200180831161054157829003601f168201915b5050506000868152600260205260409020600101549150610c369050565b50565b6060600060035483106105c85760405162461bcd60e51b8152602060048201526011602482015270496e76616c69642063616e64696461746560781b6044820152606401610298565b60008381526002602052604090206001810154815482906105e890610e92565b80601f016020809104026020016040519081016040528092919081815260200182805461061490610e92565b80156106615780601f1061063657610100808354040283529160200191610661565b820191906000526020600020905b81548152906001019060200180831161064457829003601f168201915b5050505050915091509150915091565b60026020526000908152604090208054819061068c90610e92565b80601f01602080910402602001604051908101604052809291908181526020018280546106b890610e92565b80156107055780601f106106da57610100808354040283529160200191610705565b820191906000526020600020905b8154815290600101906020018083116106e857829003601f168201915b5050505050908060010154905082565b6107446040518060600160405280602381526020016111f46023913960005433906001600160a01b0316610c7d565b6000546001600160a01b031633146107a85760405162461bcd60e51b815260206004820152602160248201527f4f6e6c79206f776e65722063616e2063616c6c20746869732066756e6374696f6044820152603760f91b6064820152608401610298565b6004600354106107fa5760405162461bcd60e51b815260206004820152601f60248201527f4d6178696d756d2063616e646964617465206c696d69742072656163686564006044820152606401610298565b60408051808201825282815260006020808301829052600354825260029052919091208151819061082b9082610fea565b506020820151816001015590505061087b6040518060400160405280601c81526020017f43616e6469646174652061646465643a202573202849443a202573290000000081525082600354610c36565b7fe83b2a43e7e82d975c8a0a6d2f045153c869e111136a34d1889ab7b598e396a3600354826040516108ae9291906110aa565b60405180910390a1600380549060006108c683610ecc565b919050555050565b6060600060146004541461091b5760405162461bcd60e51b8152602060048201526014602482015273159bdd1a5b99c81b9bdd0818dbdb5c1b195d195960621b6044820152606401610298565b60008060005b6003548110156109b35761097a6040518060400160405280601681526020017543616e6469646174652025733a20257320766f74657360501b815250826002600085815260200190815260200160002060010154610cc4565b6000818152600260205260409020600101548310156109ab5760008181526002602052604090206001015492509050805b600101610921565b50610a926040518060400160405280601881526020017f57696e6e65723a202573207769746820257320766f7465730000000000000000815250600260008481526020019081526020016000206000018054610a0e90610e92565b80601f0160208091040260200160405190810160405280929190818152602001828054610a3a90610e92565b8015610a875780601f10610a5c57610100808354040283529160200191610a87565b820191906000526020600020905b815481529060010190602001808311610a6a57829003601f168201915b505050505084610c36565b6000818152600260205260409020805483908290610aaf90610e92565b80601f0160208091040260200160405190810160405280929190818152602001828054610adb90610e92565b8015610b285780601f10610afd57610100808354040283529160200191610b28565b820191906000526020600020905b815481529060010190602001808311610b0b57829003601f168201915b505050505091509350935050509091565b60006a636f6e736f6c652e6c6f679050600080835160208501845afa505050565b610b9f8282604051602401610b709291906110cb565b60408051601f198184030181529190526020810180516001600160e01b031663319af33360e01b179052610d07565b5050565b610bea838383604051602401610bbb939291906110f5565b60408051601f198184030181529190526020810180516001600160e01b03166364acac6b60e11b179052610d07565b505050565b610bea838383604051602401610c079392919061111a565b60408051601f198184030181529190526020810180516001600160e01b0316635970e08960e01b179052610d07565b610bea838383604051602401610c4e9392919061114f565b60408051601f198184030181529190526020810180516001600160e01b0316635821efa160e01b179052610d07565b610bea838383604051602401610c9593929190611185565b60408051601f198184030181529190526020810180516001600160e01b03166307e763af60e51b179052610d07565b610bea838383604051602401610cdc939291906111b8565b60408051601f198184030181529190526020810180516001600160e01b031663ca47c4eb60e01b1790525b61057c81610b39565b610d186111dd565b565b600060208284031215610d2c57600080fd5b5035919050565b600060208284031215610d4557600080fd5b81356001600160a01b0381168114610d5c57600080fd5b9392505050565b6000815180845260005b81811015610d8957602081850181015186830182015201610d6d565b506000602082860101526020601f19601f83011685010191505092915050565b604081526000610dbc6040830185610d63565b90508260208301529392505050565b634e487b7160e01b600052604160045260246000fd5b600060208284031215610df357600080fd5b813567ffffffffffffffff80821115610e0b57600080fd5b818401915084601f830112610e1f57600080fd5b813581811115610e3157610e31610dcb565b604051601f8201601f19908116603f01168101908382118183101715610e5957610e59610dcb565b81604052828152876020848701011115610e7257600080fd5b826020860160208301376000928101602001929092525095945050505050565b600181811c90821680610ea657607f821691505b602082108103610ec657634e487b7160e01b600052602260045260246000fd5b50919050565b600060018201610eec57634e487b7160e01b600052601160045260246000fd5b5060010190565b60018060a01b0384168152600060208460208401526060604084015260008454610f1c81610e92565b8060608701526080600180841660008114610f3e5760018114610f5a57610f8a565b60ff19851660808a0152608084151560051b8a01019550610f8a565b89600052602060002060005b85811015610f815781548b8201860152908301908801610f66565b8a016080019650505b50939a9950505050505050505050565b601f821115610bea576000816000526020600020601f850160051c81016020861015610fc35750805b601f850160051c820191505b81811015610fe257828155600101610fcf565b505050505050565b815167ffffffffffffffff81111561100457611004610dcb565b611018816110128454610e92565b84610f9a565b602080601f83116001811461104d57600084156110355750858301515b600019600386901b1c1916600185901b178555610fe2565b600085815260208120601f198616915b8281101561107c5788860151825594840194600190910190840161105d565b508582101561109a5787850151600019600388901b60f8161c191681555b5050505050600190811b01905550565b8281526040602082015260006110c36040830184610d63565b949350505050565b6040815260006110de6040830185610d63565b905060018060a01b03831660208301529392505050565b6060815260006111086060830186610d63565b93151560208301525060400152919050565b60608152600061112d6060830186610d63565b84602084015282810360408401526111458185610d63565b9695505050505050565b6060815260006111626060830186610d63565b82810360208401526111748186610d63565b915050826040830152949350505050565b6060815260006111986060830186610d63565b6001600160a01b0394851660208401529290931660409091015292915050565b6060815260006111cb6060830186610d63565b60208301949094525060400152919050565b634e487b7160e01b600052605160045260246000fdfe436865636b696e67206f776e65723a2053656e6465722025732c204f776e6572202573566f7465207265636f726465642e20546f74616c20766f74657320666f722025733a202573a2646970667358221220209b7dd5cee06943bc929588b96192345b34b19147c8cbe76c71af7da6a0cb3264736f6c63430008180033",
  "linkReferences": {},
  "deployedLinkReferences": {}
}