{
  "_format": "hh-sol-artifact-1",
  "contractName": "VotingSystem",
  "sourceName": "contracts/VotingSystem.sol",
  "abi": [
    {
      "inputs": [],
      "stateMutability": "nonpayable",
      "type": "constructor"
    },
    {
      "anonymous": false,
      "inputs": [
        {
          "indexed": false,
          "internalType": "uint256",
          "name": "candidateId",
          "type": "uint256"
        },
        {
          "indexed": false,
          "internalType": "string",
          "name": "name",
          "type": "string"
        }
      ],
      "name": "CandidateAdded",
      "type": "event"
    },
    {
      "anonymous": false,
      "inputs": [
        {
          "indexed": false,
          "internalType": "address",
          "name": "voter",
          "type": "address"
        },
        {
          "indexed": false,
          "internalType": "uint256",
          "name": "candidateId",
          "type": "uint256"
        },
        {
          "indexed": false,
          "internalType": "string",
          "name": "candidateName",
          "type": "string"
        }
      ],
      "name": "Voted",
      "type": "event"
    },
    {
      "anonymous": false,
      "inputs": [
        {
          "indexed": false,
          "internalType": "string",
          "name": "winnerName",
          "type": "string"
        },
        {
          "indexed": false,
          "internalType": "uint256",
          "name": "winningVotes",
          "type": "uint256"
        }
      ],
      "name": "VotingEnded",
      "type": "event"
    },
    {
      "inputs": [],
      "name": "MAX_CANDIDATES",
      "outputs": [
        {
          "internalType": "uint256",
          "name": "",
          "type": "uint256"
        }
      ],
      "stateMutability": "view",
      "type": "function"
    },
    {
      "inputs": [],
      "name": "MAX_VOTERS",
      "outputs": [
        {
          "internalType": "uint256",
          "name": "",
          "type": "uint256"
        }
      ],
      "stateMutability": "view",
      "type": "function"
    },
    {
      "inputs": [
        {
          "internalType": "string",
          "name": "_name",
          "type": "string"
        }
      ],
      "name": "addCandidate",
      "outputs": [],
      "stateMutability": "nonpayable",
      "type": "function"
    },
    {
      "inputs": [],
      "name": "candidateCount",
      "outputs": [
        {
          "internalType": "uint256",
          "name": "",
          "type": "uint256"
        }
      ],
      "stateMutability": "view",
      "type": "function"
    },
    {
      "inputs": [
        {
          "internalType": "uint256",
          "name": "",
          "type": "uint256"
        }
      ],
      "name": "candidates",
      "outputs": [
        {
          "internalType": "string",
          "name": "name",
          "type": "string"
        },
        {
          "internalType": "uint256",
          "name": "voteCount",
          "type": "uint256"
        }
      ],
      "stateMutability": "view",
      "type": "function"
    },
    {
      "inputs": [
        {
          "internalType": "uint256",
          "name": "_candidateId",
          "type": "uint256"
        }
      ],
      "name": "getCandidateDetails",
      "outputs": [
        {
          "internalType": "string",
          "name": "",
          "type": "string"
        },
        {
          "internalType": "uint256",
          "name": "",
          "type": "uint256"
        }
      ],
      "stateMutability": "view",
      "type": "function"
    },
    {
      "inputs": [],
      "name": "getWinner",
      "outputs": [
        {
          "internalType": "string",
          "name": "",
          "type": "string"
        },
        {
          "internalType": "uint256",
          "name": "",
          "type": "uint256"
        }
      ],
      "stateMutability": "view",
      "type": "function"
    },
    {
      "inputs": [
        {
          "internalType": "address",
          "name": "",
          "type": "address"
        }
      ],
      "name": "hasVoted",
      "outputs": [
        {
          "internalType": "bool",
          "name": "",
          "type": "bool"
        }
      ],
      "stateMutability": "view",
      "type": "function"
    },
    {
      "inputs": [],
      "name": "owner",
      "outputs": [
        {
          "internalType": "address",
          "name": "",
          "type": "address"
        }
      ],
      "stateMutability": "view",
      "type": "function"
    },
    {
      "inputs": [],
      "name": "totalVotes",
      "outputs": [
        {
          "internalType": "uint256",
          "name": "",
          "type": "uint256"
        }
      ],
      "stateMutability": "view",
      "type": "function"
    },
    {
      "inputs": [
        {
          "internalType": "uint256",
          "name": "_candidateId",
          "type": "uint256"
        }
      ],
      "name": "vote",
      "outputs": [],
      "stateMutability": "nonpayable",
      "type": "function"
    }
  ],
  "bytecode": "0x608060405234801561001057600080fd5b50336000806101000a81548173ffffffffffffffffffffffffffffffffffffffff021916908373ffffffffffffffffffffffffffffffffffffffff1602179055506100b66040518060400160405280601d81526020017f566f74696e672053797374656d206465706c6f7965642062793a20257300000081525060008054906101000a900473ffffffffffffffffffffffffffffffffffffffff166100bb60201b60201c565b6102ee565b61015982826040516024016100d192919061028f565b6040516020818303038152906040527f319af333000000000000000000000000000000000000000000000000000000007bffffffffffffffffffffffffffffffffffffffffffffffffffffffff19166020820180517bffffffffffffffffffffffffffffffffffffffffffffffffffffffff838183161783525050505061015d60201b60201c565b5050565b61017e8161017961018160201b610d42176101a260201b60201c565b60201c565b50565b60006a636f6e736f6c652e6c6f679050600080835160208501845afa505050565b6101b460201b61113f17819050919050565b6101bc6102bf565b565b600081519050919050565b600082825260208201905092915050565b60005b838110156101f85780820151818401526020810190506101dd565b60008484015250505050565b6000601f19601f8301169050919050565b6000610220826101be565b61022a81856101c9565b935061023a8185602086016101da565b61024381610204565b840191505092915050565b600073ffffffffffffffffffffffffffffffffffffffff82169050919050565b60006102798261024e565b9050919050565b6102898161026e565b82525050565b600060408201905081810360008301526102a98185610215565b90506102b86020830184610280565b9392505050565b7f4e487b7100000000000000000000000000000000000000000000000000000000600052605160045260246000fd5b611e29806102fd6000396000f3fe608060405234801561001057600080fd5b50600436106100a95760003560e01c80633ceed692116100715780633ceed6921461017a578063462e91ec146101985780638da5cb5b146101b45780638e7ea5b2146101d2578063a9a981a3146101f1578063f07860961461020f576100a9565b80630121b93f146100ae57806309eef43e146100ca5780630d15fd77146100fa57806327f9fd50146101185780633477ee2e14610149575b600080fd5b6100c860048036038101906100c39190611193565b61022d565b005b6100e460048036038101906100df919061121e565b6106b3565b6040516100f19190611266565b60405180910390f35b6101026106d3565b60405161010f9190611290565b60405180910390f35b610132600480360381019061012d9190611193565b6106d9565b60405161014092919061133b565b60405180910390f35b610163600480360381019061015e9190611193565b6107e3565b60405161017192919061133b565b60405180910390f35b61018261088f565b60405161018f9190611290565b60405180910390f35b6101b260048036038101906101ad91906114a0565b610894565b005b6101bc610a90565b6040516101c991906114f8565b60405180910390f35b6101da610ab4565b6040516101e892919061133b565b60405180910390f35b6101f9610d37565b6040516102069190611290565b60405180910390f35b610217610d3d565b6040516102249190611290565b60405180910390f35b61026c6040518060400160405280601c81526020017f436865636b696e6720766f74696e672072756c657320666f722025730000000081525033610d63565b6102fa6040518060400160405280601e81526020017f48617320766f7465643a2025732c20546f74616c20766f7465733a2025730000815250600160003373ffffffffffffffffffffffffffffffffffffffff1673ffffffffffffffffffffffffffffffffffffffff16815260200190815260200160002060009054906101000a900460ff16600454610dff565b600160003373ffffffffffffffffffffffffffffffffffffffff1673ffffffffffffffffffffffffffffffffffffffff16815260200190815260200160002060009054906101000a900460ff1615610387576040517f08c379a000000000000000000000000000000000000000000000000000000000815260040161037e9061155f565b60405180910390fd5b6014600454106103cc576040517f08c379a00000000000000000000000000000000000000000000000000000000081526004016103c3906115cb565b60405180910390fd5b6003548110610410576040517f08c379a000000000000000000000000000000000000000000000000000000000815260040161040790611637565b60405180910390fd5b6104ee6040518060400160405280601b81526020017f566f74696e6720666f722063616e6469646174652025733a20257300000000008152508260026000858152602001908152602001600020600001805461046b90611686565b80601f016020809104026020016040519081016040528092919081815260200182805461049790611686565b80156104e45780601f106104b9576101008083540402835291602001916104e4565b820191906000526020600020905b8154815290600101906020018083116104c757829003601f168201915b5050505050610e9e565b600260008281526020019081526020016000206001016000815480929190610515906116e6565b919050555060018060003373ffffffffffffffffffffffffffffffffffffffff1673ffffffffffffffffffffffffffffffffffffffff16815260200190815260200160002060006101000a81548160ff02191690831515021790555060046000815480929190610584906116e6565b91905055507f497ac9c2d8b6e7ea7204365157d9642f36d2b6125352bfa6d0a73328142d0bd93382600260008581526020019081526020016000206000016040516105d1939291906117c7565b60405180910390a16106b0604051806060016040528060258152602001611dcf6025913960026000848152602001908152602001600020600001805461061690611686565b80601f016020809104026020016040519081016040528092919081815260200182805461064290611686565b801561068f5780601f106106645761010080835404028352916020019161068f565b820191906000526020600020905b81548152906001019060200180831161067257829003601f168201915b50505050506002600085815260200190815260200160002060010154610f3d565b50565b60016020528060005260406000206000915054906101000a900460ff1681565b60045481565b606060006003548310610721576040517f08c379a000000000000000000000000000000000000000000000000000000000815260040161071890611637565b60405180910390fd5b60026000848152602001908152602001600020600001600260008581526020019081526020016000206001015481805461075a90611686565b80601f016020809104026020016040519081016040528092919081815260200182805461078690611686565b80156107d35780601f106107a8576101008083540402835291602001916107d3565b820191906000526020600020905b8154815290600101906020018083116107b657829003601f168201915b5050505050915091509150915091565b600260205280600052604060002060009150905080600001805461080690611686565b80601f016020809104026020016040519081016040528092919081815260200182805461083290611686565b801561087f5780601f106108545761010080835404028352916020019161087f565b820191906000526020600020905b81548152906001019060200180831161086257829003601f168201915b5050505050908060010154905082565b601481565b6108d7604051806060016040528060238152602001611dac602391393360008054906101000a900473ffffffffffffffffffffffffffffffffffffffff16610fdc565b60008054906101000a900473ffffffffffffffffffffffffffffffffffffffff1673ffffffffffffffffffffffffffffffffffffffff163373ffffffffffffffffffffffffffffffffffffffff1614610965576040517f08c379a000000000000000000000000000000000000000000000000000000000815260040161095c90611877565b60405180910390fd5b6004600354106109aa576040517f08c379a00000000000000000000000000000000000000000000000000000000081526004016109a1906118e3565b60405180910390fd5b6040518060400160405280828152602001600081525060026000600354815260200190815260200160002060008201518160000190816109ea9190611a9a565b5060208201518160010155905050610a3a6040518060400160405280601c81526020017f43616e6469646174652061646465643a202573202849443a202573290000000081525082600354610f3d565b7fe83b2a43e7e82d975c8a0a6d2f045153c869e111136a34d1889ab7b598e396a360035482604051610a6d929190611b6c565b60405180910390a160036000815480929190610a88906116e6565b919050555050565b60008054906101000a900473ffffffffffffffffffffffffffffffffffffffff1681565b60606000601460045414610afd576040517f08c379a0000000000000000000000000000000000000000000000000000000008152600401610af490611be8565b60405180910390fd5b60008060005b600354811015610bab57610b636040518060400160405280601681526020017f43616e6469646174652025733a20257320766f7465730000000000000000000081525082600260008581526020019081526020016000206001015461107b565b8260026000838152602001908152602001600020600101541115610b9e57600260008281526020019081526020016000206001015492508091505b8080600101915050610b03565b50610c8a6040518060400160405280601881526020017f57696e6e65723a202573207769746820257320766f7465730000000000000000815250600260008481526020019081526020016000206000018054610c0690611686565b80601f0160208091040260200160405190810160405280929190818152602001828054610c3290611686565b8015610c7f5780601f10610c5457610100808354040283529160200191610c7f565b820191906000526020600020905b815481529060010190602001808311610c6257829003601f168201915b505050505084610f3d565b6002600082815260200190815260200160002060000182818054610cad90611686565b80601f0160208091040260200160405190810160405280929190818152602001828054610cd990611686565b8015610d265780601f10610cfb57610100808354040283529160200191610d26565b820191906000526020600020905b815481529060010190602001808311610d0957829003601f168201915b505050505091509350935050509091565b60035481565b600481565b60006a636f6e736f6c652e6c6f679050600080835160208501845afa505050565b610dfb8282604051602401610d79929190611c08565b6040516020818303038152906040527f319af333000000000000000000000000000000000000000000000000000000007bffffffffffffffffffffffffffffffffffffffffffffffffffffffff19166020820180517bffffffffffffffffffffffffffffffffffffffffffffffffffffffff838183161783525050505061111a565b5050565b610e99838383604051602401610e1793929190611c38565b6040516020818303038152906040527fc95958d6000000000000000000000000000000000000000000000000000000007bffffffffffffffffffffffffffffffffffffffffffffffffffffffff19166020820180517bffffffffffffffffffffffffffffffffffffffffffffffffffffffff838183161783525050505061111a565b505050565b610f38838383604051602401610eb693929190611c76565b6040516020818303038152906040527f5970e089000000000000000000000000000000000000000000000000000000007bffffffffffffffffffffffffffffffffffffffffffffffffffffffff19166020820180517bffffffffffffffffffffffffffffffffffffffffffffffffffffffff838183161783525050505061111a565b505050565b610fd7838383604051602401610f5593929190611cbb565b6040516020818303038152906040527f5821efa1000000000000000000000000000000000000000000000000000000007bffffffffffffffffffffffffffffffffffffffffffffffffffffffff19166020820180517bffffffffffffffffffffffffffffffffffffffffffffffffffffffff838183161783525050505061111a565b505050565b611076838383604051602401610ff493929190611d00565b6040516020818303038152906040527ffcec75e0000000000000000000000000000000000000000000000000000000007bffffffffffffffffffffffffffffffffffffffffffffffffffffffff19166020820180517bffffffffffffffffffffffffffffffffffffffffffffffffffffffff838183161783525050505061111a565b505050565b61111583838360405160240161109393929190611d3e565b6040516020818303038152906040527fca47c4eb000000000000000000000000000000000000000000000000000000007bffffffffffffffffffffffffffffffffffffffffffffffffffffffff19166020820180517bffffffffffffffffffffffffffffffffffffffffffffffffffffffff838183161783525050505061111a565b505050565b61113181611129610d42611134565b63ffffffff16565b50565b61113f819050919050565b611147611d7c565b565b6000604051905090565b600080fd5b600080fd5b6000819050919050565b6111708161115d565b811461117b57600080fd5b50565b60008135905061118d81611167565b92915050565b6000602082840312156111a9576111a8611153565b5b60006111b78482850161117e565b91505092915050565b600073ffffffffffffffffffffffffffffffffffffffff82169050919050565b60006111eb826111c0565b9050919050565b6111fb816111e0565b811461120657600080fd5b50565b600081359050611218816111f2565b92915050565b60006020828403121561123457611233611153565b5b600061124284828501611209565b91505092915050565b60008115159050919050565b6112608161124b565b82525050565b600060208201905061127b6000830184611257565b92915050565b61128a8161115d565b82525050565b60006020820190506112a56000830184611281565b92915050565b600081519050919050565b600082825260208201905092915050565b60005b838110156112e55780820151818401526020810190506112ca565b60008484015250505050565b6000601f19601f8301169050919050565b600061130d826112ab565b61131781856112b6565b93506113278185602086016112c7565b611330816112f1565b840191505092915050565b600060408201905081810360008301526113558185611302565b90506113646020830184611281565b9392505050565b600080fd5b600080fd5b7f4e487b7100000000000000000000000000000000000000000000000000000000600052604160045260246000fd5b6113ad826112f1565b810181811067ffffffffffffffff821117156113cc576113cb611375565b5b80604052505050565b60006113df611149565b90506113eb82826113a4565b919050565b600067ffffffffffffffff82111561140b5761140a611375565b5b611414826112f1565b9050602081019050919050565b82818337600083830152505050565b600061144361143e846113f0565b6113d5565b90508281526020810184848401111561145f5761145e611370565b5b61146a848285611421565b509392505050565b600082601f8301126114875761148661136b565b5b8135611497848260208601611430565b91505092915050565b6000602082840312156114b6576114b5611153565b5b600082013567ffffffffffffffff8111156114d4576114d3611158565b5b6114e084828501611472565b91505092915050565b6114f2816111e0565b82525050565b600060208201905061150d60008301846114e9565b92915050565b7f566f7465722068617320616c726561647920766f746564000000000000000000600082015250565b60006115496017836112b6565b915061155482611513565b602082019050919050565b600060208201905081810360008301526115788161153c565b9050919050565b7f4d6178696d756d20766f746572206c696d697420726561636865640000000000600082015250565b60006115b5601b836112b6565b91506115c08261157f565b602082019050919050565b600060208201905081810360008301526115e4816115a8565b9050919050565b7f496e76616c69642063616e646964617465000000000000000000000000000000600082015250565b60006116216011836112b6565b915061162c826115eb565b602082019050919050565b6000602082019050818103600083015261165081611614565b9050919050565b7f4e487b7100000000000000000000000000000000000000000000000000000000600052602260045260246000fd5b6000600282049050600182168061169e57607f821691505b6020821081036116b1576116b0611657565b5b50919050565b7f4e487b7100000000000000000000000000000000000000000000000000000000600052601160045260246000fd5b60006116f18261115d565b91507fffffffffffffffffffffffffffffffffffffffffffffffffffffffffffffffff8203611723576117226116b7565b5b600182019050919050565b60008190508160005260206000209050919050565b6000815461175081611686565b61175a81866112b6565b94506001821660008114611775576001811461178b576117be565b60ff1983168652811515602002860193506117be565b6117948561172e565b60005b838110156117b657815481890152600182019150602081019050611797565b808801955050505b50505092915050565b60006060820190506117dc60008301866114e9565b6117e96020830185611281565b81810360408301526117fb8184611743565b9050949350505050565b7f4f6e6c79206f776e65722063616e2063616c6c20746869732066756e6374696f60008201527f6e00000000000000000000000000000000000000000000000000000000000000602082015250565b60006118616021836112b6565b915061186c82611805565b604082019050919050565b6000602082019050818103600083015261189081611854565b9050919050565b7f4d6178696d756d2063616e646964617465206c696d6974207265616368656400600082015250565b60006118cd601f836112b6565b91506118d882611897565b602082019050919050565b600060208201905081810360008301526118fc816118c0565b9050919050565b60006020601f8301049050919050565b600082821b905092915050565b6000600883026119507fffffffffffffffffffffffffffffffffffffffffffffffffffffffffffffffff82611913565b61195a8683611913565b95508019841693508086168417925050509392505050565b6000819050919050565b600061199761199261198d8461115d565b611972565b61115d565b9050919050565b6000819050919050565b6119b18361197c565b6119c56119bd8261199e565b848454611920565b825550505050565b600090565b6119da6119cd565b6119e58184846119a8565b505050565b5b81811015611a09576119fe6000826119d2565b6001810190506119eb565b5050565b601f821115611a4e57611a1f8161172e565b611a2884611903565b81016020851015611a37578190505b611a4b611a4385611903565b8301826119ea565b50505b505050565b600082821c905092915050565b6000611a7160001984600802611a53565b1980831691505092915050565b6000611a8a8383611a60565b9150826002028217905092915050565b611aa3826112ab565b67ffffffffffffffff811115611abc57611abb611375565b5b611ac68254611686565b611ad1828285611a0d565b600060209050601f831160018114611b045760008415611af2578287015190505b611afc8582611a7e565b865550611b64565b601f198416611b128661172e565b60005b82811015611b3a57848901518255600182019150602085019450602081019050611b15565b86831015611b575784890151611b53601f891682611a60565b8355505b6001600288020188555050505b505050505050565b6000604082019050611b816000830185611281565b8181036020830152611b938184611302565b90509392505050565b7f566f74696e67206e6f7420636f6d706c65746564000000000000000000000000600082015250565b6000611bd26014836112b6565b9150611bdd82611b9c565b602082019050919050565b60006020820190508181036000830152611c0181611bc5565b9050919050565b60006040820190508181036000830152611c228185611302565b9050611c3160208301846114e9565b9392505050565b60006060820190508181036000830152611c528186611302565b9050611c616020830185611257565b611c6e6040830184611281565b949350505050565b60006060820190508181036000830152611c908186611302565b9050611c9f6020830185611281565b8181036040830152611cb18184611302565b9050949350505050565b60006060820190508181036000830152611cd58186611302565b90508181036020830152611ce98185611302565b9050611cf86040830184611281565b949350505050565b60006060820190508181036000830152611d1a8186611302565b9050611d2960208301856114e9565b611d3660408301846114e9565b949350505050565b60006060820190508181036000830152611d588186611302565b9050611d676020830185611281565b611d746040830184611281565b949350505050565b7f4e487b7100000000000000000000000000000000000000000000000000000000600052605160045260246000fdfe436865636b696e67206f776e65723a2053656e6465722025732c204f776e6572202573566f7465207265636f726465642e20546f74616c20766f74657320666f722025733a202573a2646970667358221220f60e0467a727f5e915212adfad9227abfacc05c5f9bb6de607735ddc9145963464736f6c634300081c0033",
  "linkReferences": {},
  "deployedLinkReferences": {}
}